:100000003EC0000064C0000062C00000C4C5000023
:100010005EC000005CC000005AC00000BFC4000009
:1000200056C0000054C0000052C0000050C0000084
:100030004EC000004CC000004AC0000008C40000D0
:1000400046C0000044C0000042C0000040C00000A4
:100050002DC4000080C400003AC0000038C0000079
:1000600036C0000034C0000032C0000030C00000C4
:100070002EC000002CC000002AC000004A09112434
:100080001FBECFEFCDBFDFE3DEBF80914000809386
:100090004000811105C098ED21E094BF20934100FC
:1000A0008CBB28E3A0E0B8E301C01D92AA3FB207D1
:1000B000E1F710E0CFE3D0E004C02197FE010E94F9
:1000C0008409CE33D107C9F781D50C94A30998CF01
:1000D000E091E538F091E6388E179F0798F530915A
:1000E000EC38332361F0639FB0011124672F349FF4
:1000F000A0011124452F329F90011124232F30910C
:10010000F238E091ED38F091EE385091EF38351338
:100110001AC0DC01AA0FBB1F8A0F9B1F8E0F9F1FE7
:10012000E091EF38E80FF92FF11D6083E091F0388E
:10013000E80FF92FF11D40833091F138830F911DA5
:10014000FC0120830895880F991F880F991F8E0F37
:100150009F1FFC01E30FF11D1082E2CFCF92DF92CF
:10016000EF92FF929FB7F89488E08093840A809181
:100170008E0A81FFFCCF80918D0AE091A20AF09156
:10018000A30AC090DB38D090DC38E090DD38F090E6
:10019000DE389FBF80FF08C0E730F10528F48FEFFD
:1001A000C81AD80AE80AF80A9F0136952795CF01A0
:1001B000820F911DE22FE695E695322F32953F7022
:1001C000E31BFF0B27FD3196E80FF91FA0E3B3E017
:1001D000A70196010E948A09F694E794D794C794E0
:1001E000C60ED71EE81EF91EC701B6016E0F7F1F8F
:1001F000811D911DFF90EF90DF90CF9008950F9398
:100200001F93CF93DF93CDB7DEB72797CDBFDEBF68
:100210008091E7389091E83889839A838091ED380E
:100220009091EE38892B09F469C08091EB388231C6
:100230000CF064C093DF0091F3381091F4382091F2
:10024000F5383091F638AB01BC01401B510B620B05
:10025000730B8091E9389091EA38B0E0A0E048173C
:1002600059076A077B0730F3F894A091ED38B091F5
:10027000EE38FD0131968C918F83A091F738B091C3
:10028000F8389C918091F938982B9E839C918095A9
:1002900089238D838D818C8388E08B835E816D8142
:1002A0004F813B812C8189819A815C9347FD252F69
:1002B0003A95000000C02C93262F41F0441F00C047
:1002C00000006C9301D0F1CF00C0089538E0419157
:1002D00000006C93000000C000C0019731F74F830D
:1002E0003B832C8389839A83789438DF6093F33837
:1002F0007093F4388093F5389093F6382796CDBFF5
:10030000DEBFDF91CF911F910F910895CF92DF92C1
:10031000EF92FF92CF93DF936B017C011FDFEB0124
:100320001DDF6C1B7D0B683E7340A0F0C114D1042F
:10033000E104F10439F4DF91CF91FF90EF90DF9069
:10034000CF90089581E0C81AD108E108F108C8519A
:10035000DC4FE6CFC114D104E104F10409F7EBCF7F
:10036000CF93DF93FC0180913B3890913C383097DC
:1003700059F410920A0682E090E080933D38909301
:100380003E38DF91CF910895268524FD05C0228156
:1003900033812817390721F00190F081E02DE7CF54
:1003A000E0933F38F0934038C0E0D6E0309749F30F
:1003B0004685948544FD32C08789882379F1A92F29
:1003C000A295AF70B0E0A05ABC462C9185858B31C8
:1003D00038F58C5F678170856AA77BA76581768118
:1003E0006EA37FA3618572856A8F7B8F2C8F8D832F
:1003F0009F7099838385282F22952F7030E0288B5A
:10040000398B8F7080618A83888D8360888F81E8C3
:10041000888381E042FD06C08887B3CF2FE3D6CF23
:100420008FE1D8CF8987ADCF1F93CF93DF93FC01A6
:10043000868580FD9EC083FF9CC0877F8687C78599
:10044000D0899789708D911198C011853285632F5D
:10045000607CC13022E0D20718F1CE018F5F91405D
:100460008A30910508F479C0228120FF05C0969555
:1004700087955FEFBAEF0AC0813021E0920720F044
:10048000605CCE018F5E924051E0B6E0A12FA29554
:10049000AF70432F4F7032953F70232F23703AC0B7
:1004A0008FEF91E08C1B9D0B8A30910508F455C0AD
:1004B000228120FF03C096958795E6CF813021E009
:1004C0009207B8F26034A8F260548FE091E08C1B80
:1004D0009D0BCFCF352F320F343030F48F5C910924
:1004E000232F803D9105B0F78631910538F54031D5
:1004F00028F0322F350F343030F1451B8230910512
:1005000028F5A03138F0450F403128F1250F24306F
:1005100068F54B1B8230910520F7A295A07F2295AC
:10052000207F462B242B1F70A12B322F2A2F2187AF
:1005300032877B30D8F47F5F708F1BC0450F40310E
:10054000C0F64597D1CF4B1B232FD8CFA50FA03195
:10055000D0F60297D3CFAB1BDDCFC18BD28B868574
:1005600082FFB3C080E8108E878B03C086858160D0
:100570008687DF91CF911F91089541895289C41BCD
:10058000D50B90FF07C0CB36DF4F9CF4743098F248
:1005900080E0E9CF91FF0FC01C161D0654F0CA364B
:1005A000DF4F0CF48CC041505109703120F2418B67
:1005B000528B84E01BC092FF1CC0CA368FEFD80755
:1005C0000CF47DC0A389B489CA17DB070CF07BC08B
:1005D0004B5651404B325140D8F6CF3F8FEFD807A2
:1005E0000CF46FC088E022970CF4A5CF9813BBCF12
:1005F000A2CF93FF0EC0D7FDDCCFA389B489CA1761
:10060000DB070CF060C0703108F495CF4F5F5F4F8F
:10061000CECF94FF08C0733080F443895489C41747
:10062000D5073CF288CF95FF0AC0733010F6438996
:1006300054894C175D070CF07ECF80E4D7CF96FF2E
:100640000BC0793C08F0A4CF45895689C417D5075B
:100650000CF071CF80E2CACF97FF6DCF868582FD07
:100660001EC0A389B48980E4AC17BD070CF084E0F8
:100670001092393810923A38CF3F2FEFD2078CF4CE
:1006800041505109418B528B20911406309115062F
:10069000215031092093140630931506A7CF892FD6
:1006A000EBCF22970CF4A2CF4F5F5F4F418B528B61
:1006B00020911406309115062F5F3F4FEBCF81E05C
:1006C00095CF82E093CF80E191CF84E04CCFEF9241
:1006D000FF920F931F93CF93DF93082FF62EE42EF4
:1006E000122FD0E0C0E02E2D4F2D602FCE01F0DC78
:1006F0002196C231D105B9F7112339F0DF91CF919D
:100700001F910F91FF90EF907ACDDF91CF911F91C4
:100710000F91FF90EF900895CF93DF9364E170E025
:10072000DFD5282F8B3010F024E1281B220F30E07A
:10073000F901E65BFC46D491F901E55BFC46C49106
:1007400020E040E060E080E0C2DF20E040E06EE1D9
:100750008D2F90E0BDDCCF3F31F020E040E06EE136
:100760008C2F90E0B5DC4BDD84E6DF91CF910895CE
:100770000F931F93CF93DF93EC01162F042F20E0EC
:1007800040E060E080E0A3DFCE0169E070E0A8D542
:10079000EC01202F40E0612F9BDC202F40E0612FF7
:1007A00081E190E08C1B9D0B93DC29DD84E6DF91D9
:1007B000CF911F910F9108958091080483FB8827A2
:1007C00080F9089594E0811116C0909326049091C9
:1007D000200492FD0AC09FB7F89481110FC0809148
:1007E0003204877F809332049FBF8091010A8B7F00
:1007F0008093010A089590932504E9CF80913204F3
:100800008860F0CF8231F0F490E0FC01EE53FC46BA
:1008100020812F3FB9F0FC01E055FC46E08130E239
:10082000E39FF0011124FC5F613069F4218382565B
:100830009C46DC018C91E80FF11D8089613029F024
:100840008860808B08952283F2CF877FFACF8F93C1
:1008500081E080938D0A8FB78F93EF93FF93EBED39
:10086000F8E39F9368948FEF0DC0E894848195819D
:10087000805D9C4F84839583885E934080F0848361
:1008800095838FEF9081981B919390819F4F9193C7
:1008900090819F4F919390819F4F919336F39F91B9
:1008A000FF91EF918F918FBF8F9118951F920F92AB
:1008B0000FB60F9211242F933F934F935F936F9333
:1008C0007F938F939F93AF93BF93CF93DF93EF93D8
:1008D000FF93C0E0D6E0E0913F38F0914038309788
:1008E000F1F018823B858889998924852F7002C090
:1008F000969587952A95E2F78787908B86858860FD
:100900008687868582FF23C0868531FF1BC0826073
:10091000868780E190E080933D3890933E38FF9148
:10092000EF91DF91CF91BF91AF919F918F917F9187
:100930006F915F914F913F912F910F900FBE0F904C
:100940001F9018958D7F868788E090E0E4CF8081A6
:10095000918106DDE4CF1F920F920FB60F92112402
:100960002F933F934F935F936F937F938F939F93B7
:10097000AF93BF93EF93FF9399DFFF91EF91BF91F7
:10098000AF919F918F917F916F915F914F913F9127
:100990002F910F900FBE0F901F9018951F920F92DE
:1009A0000FB60F921124CF92DF92EF92FF922F9306
:1009B0003F934F935F936F937F938F939F93AF93E7
:1009C000BF93CF93DF93EF93FF9381E08093530125
:1009D0008091DA38882309F48EC08FB7F894C090DC
:1009E000DF38D090E038E090E138F090E2388FBF07
:1009F00080913D3890913E3888719927892B09F470
:100A00009BC08091393890913A380097A1F020919D
:100A10003D3830913E3808DD8091393890913A3830
:100A2000892B09F07FC010923B3810923C3810920D
:100A30003D3810923E388091013890910238C81AA2
:100A4000D90A24E1C216D10408F455C04496809313
:100A500001389093023880913D3890913E38892B2F
:100A600009F049C0E0E0F6E080913D3890913E38D1
:100A7000892B09F040C0C0914138D09142382A8179
:100A80003B81108E80EE213021F0243009F070C0BF
:100A900088E2808F168E1082138283E0838733274B
:100AA00020933B3830933C38A0913938B0913A3894
:100AB000109709F465C082E08287848351968D91F6
:100AC0009C91529753962D913C915497820F931F6E
:100AD0001C962C911C972F7002C0880F991F2A9585
:100AE000E2F7848B958B84E090E080933D3890937F
:100AF0003E38CD0135DCFF91EF91DF91CF91BF9171
:100B0000AF919F918F917F916F915F914F913F91A5
:100B10002F91FF90EF90DF90CF900F900FBE0F902E
:100B20001F90189582E080930A0684E090E08093FD
:100B30003D3890933E387FCF80913D3890913E383C
:100B4000029709F078CF10923D3810923E38C0914C
:100B50004138D0914238209729F410923B381092B6
:100B60003C3869CFCE0160DC0990D881C02DF3CF2D
:100B70002C3009F0C0CF88E2808F86E8868F8BCF3B
:100B800081E08287148281E090E080933D389093E9
:100B90003E38CE01AFCF1F920F920FB60F921124A5
:100BA0008F939F9388E08093090480910038882375
:100BB00031F088ED91E084BF90930001FFCF9F91C9
:100BC0008F910F900FBE0F901F901895CF93DF93CA
:100BD000CDB7DEB72597CDBFDEBF88ED90E084BFEF
:100BE00090936100E0E0F6E083E582838DE0858309
:100BF00080E2838381E08083109202028093030A63
:100C00009EEF9093260A9093270A9BE09093000A08
:100C1000E0E8FAE02DEF31E026A737A7118290E84F
:100C20009283848781E18083789461E08EE0EADDBD
:100C300061E08FE0E7DD61E087E0E4DD61E086E030
:100C4000E1DD61E086E0DEDD62E080E1DBDD81E0C8
:100C5000B9DD809141018111FCCF81E08093470192
:100C600028E933E929833A83EEE94E2EE3E95E2E43
:100C7000E4E4F8E3190101E010E024E0A4E0EA2E46
:100C8000F12CBCE0CB2ED12C83E0B82E31E190E5E5
:100C9000892E912C4AE0642E712CD101AD901D015A
:100CA0004A2D50E0C8010A2C02C0880F991F0A94EF
:100CB000E2F7009709F481C0BA0168237923672B12
:100CC00009F07BC0F8330CF478C0A0914138B091A2
:100CD0004238109709F068C0E0934138F0934238E9
:100CE0001482178A45835683878390872487A82A8E
:100CF000609122066A296093220670E060E0A0FC01
:100D000065C0A6946F5F7F4F68307105C1F7792F7A
:100D100080912306892B8093230686E693E968E079
:100D200070FD5FC06F5F769501966031C9F7452B06
:100D300009F465C0C282D38287E695E081879287F5
:100D4000B3863487838A948A658A768A7996421430
:100D5000530409F0A2CF809100148093433881E0BE
:100D60008093520199E1909350018093DA38812C5D
:100D7000912C5401F12C10E000E079E0472E512C29
:100D8000EFEFEF0DEA3008F03DC0F0E0E753F94F28
:100D9000BBC20F0732073B0742074B078E07AC0762
:100DA000CE07EC071D08DB016D917C911197611551
:100DB0007105C9F7EA17FB0709F4FFCFED93FC9320
:100DC000119714966C916F5F64838BCFDB01AA59E6
:100DD000BC46AC91AA2309F494CFB0E0BC5F2C933D
:100DE00090CF6E3008F09ECFDC011896AC90AA2010
:100DF00009F498CFAA2DB0E0BC5F2C9393CFE28288
:100E0000F3829ACFC80188DCA82FB0E0AC83BD8301
:100E1000F12C8C819D81892B09F044C040C0C80110
:100E20006CE370E05DD28C839D838F31910530F04F
:100E3000ECE3F0E0E81BF90BEC83FD8321E040E0FC
:100E400060E08C8144DC2C813D81232B41F438EC23
:100E50003B83BB81AB2FB0E0AC83BD8323C08EE16D
:100E60008B83F7CF4AE060E0C80182DCE82FF0E036
:100E7000EC83FD83CECFC8014FDC282F30E02C83DC
:100E80003D83C7CF40E06AE0C80172DCA82FB0E024
:100E9000AC83BD83BECF80914338877081F0F394DB
:100EA0001C821D820F5F1F4F2C813D81C901330FB2
:100EB000AA0BBB0B880E991EAA1EBB1E1DC1C80122
:100EC0006AE570E00DD220E040E03EE1823191051C
:100ED000A8F08432910578F020E048E034E18633D0
:100EE000910560F02EE140E036E08834910530F065
:100EF0004F2D2EE102C020E048E030E062E170E0DA
:100F0000EFD18C589C46FC018491632F90E0E0D88F
:100F100076D922E330E02C833D83C4CF80914338DF
:100F200081FDBDCFC80163E070E0DAD18B8320E0A2
:100F300040E060E080E0CBDB20E044E16AE03B8120
:100F4000832F90E0C5D88B818D5F8B838231A0F396
:100F500056D9A6E9B0E080CF8091433882FD9FCF7B
:100F600020E04FEF64E18CE0B2DBE1E0F0E0EC8305
:100F7000FD8320E042E060E08C819D81A9D82C8136
:100F80003D812D5F3F4F2C833D832331310589F710
:100F900036D98AEF90E08C839D8384CF809143384B
:100FA00080FD7DCF902F91709B8320E040E060E03A
:100FB0008AE08DDB2FEF40E060E0AB818A2F90E08C
:100FC00087D8BB81BE5FBB83B231A0F318D9E4E6FA
:100FD000F0E0EC83FD8366CFC801B20181D16C01E2
:100FE00020E040E060E080E072DBE12C7E2C770CBA
:100FF0007E0CC601B20174D18C839D83FC01E15744
:10100000FC468491272D40E06E2D90E061D8EC8164
:10101000FD81EA57FC46E491272D40E060E08E2FE9
:1010200090E056D8E394FFEFCF1ADF0A27E0E212F0
:10103000DDCFE5D88BE490E0AECFC8016FE374E17B
:101040004FD18C839D8320E040E060E080E03FDB77
:10105000AC81BD81AE31B10560F4CD0165E070E0D9
:101060003FD160FDB3CF20E040E060E08AE02FDBBD
:10107000ADCF8C819D814E978F3EF3E19F0790F518
:1010800067E372E02DD1D62E6FE370E029D1EE2414
:10109000E394E60E1C821D822C812D15D8F420E0ED
:1010A00040E06AE08C819D8113D88C819D810196FE
:1010B0008C839D83F1CF8C819D81AC81BD81119604
:1010C000AC83BD8320E040E06AE002D8D394DE1414
:1010D00090F37CCFE9E0F0E0EC83FD83D12C81E15B
:1010E00090E0F0CF21E040E06EE180E0F0DA24E62D
:1010F00030E011CF10E000E0AC81BD811A161B0674
:101100000CF092C0E4E4F8E390E080E0E12C278961
:10111000207641F021E030E0082E01C0220F0A9431
:10112000EAF7E22A019679968630910581F78E2DAD
:101130008770D9F0E0FE68C0B4E1BB8364E1662E3D
:10114000E2FE612C54E1752EE1FE712CD12CC12CF4
:101150002B81462D672DC6010E946800EFEFCE1A45
:10116000DE0AF9E0CF16D10499F78E2D8873E1F0ED
:1011700044E1642EE5FE612C34E1732EE3FE712C14
:10118000E4FE44C024E1E22E99E0C92ED12C262DA4
:10119000472D6E2DC6010E9468002FEFC21AD20A99
:1011A00032E1C316D10499F72AD86AE070E080E0F2
:1011B00090E0ACD88C819D810A978C839D83FCDA6A
:1011C000813009F499CF62E370E080E090E09ED82E
:1011D00082E3C82ED12CF0DA81111AC065E070E0EC
:1011E00080E090E093D895E0C90ED11CA5EDCA1619
:1011F000A7E0DA0681F7E0DA81117ECF65E070E0E2
:1012000080E090E083D8F7CF1B8298CFE12CBCCF51
:10121000B9ECCB16D10408F46DCFE1EBCE16E4E0C7
:10122000DE0608F469CFE7CFF1EA8F16FBEB9F06E5
:10123000FDE0AF06B10408F4A3CD8EEF8093520118
:101240001092DA3880915000897F8460809350003A
:101250008DE08093130480E0B5DA809100068E7FE4
:101260008093000661E0A981BA818D91A983BA8338
:10127000C9DAE981FA812E163F06A1F78091500064
:10128000816080935000889588ED91E084BF9093B1
:101290000001FFCFE5EEF8E382E390E084839583DD
:1012A000178283E098E38087918716861786108AD5
:1012B000118A81E085878287138682E0848786E3AE
:1012C00090E08283938382E190E08083918386E043
:1012D000868384E294E0828B938B88E0848B0895EC
:1012E000AA1BBB1B51E107C0AA1FBB1FA617B7074C
:1012F00010F0A61BB70B881F991F5A95A9F7809568
:101300009095BC01CD010895EE0FFF1F0590F4915B
:10131000E02D099409D0A59F900DB49F900DA49F36
:10132000800D911D11240895A29FB001B39FC001AB
:10133000A39F700D811D1124911DB29F700D811D01
:0A1340001124911D0895F894FFCFC9
:10134A0002FF0103000408050607070A0B090C112E
:10135A000D100E0F0FFF3F1C0B0503011415161776
:10136A0031105051525354553536070800010203C3
:10137A000405060A0911100F0E0D0C0B0A091110AB
:10138A000F0E0D0C0B0708000102030405060001ED
:10139A000203090804050607050403020100000107
:1013AA000203010203000000000001010101010122
:1013BA0002020202000000001020408020100804EF
:0A13CA0002010102040802040801F8
:00000001FF
